{
  "contractName": "ERC20Token",
  "abi": [
    {
      "inputs": [],
      "stateMutability": "nonpayable",
      "type": "constructor"
    },
    {
      "anonymous": false,
      "inputs": [
        {
          "indexed": true,
          "internalType": "address",
          "name": "owner",
          "type": "address"
        },
        {
          "indexed": true,
          "internalType": "address",
          "name": "spender",
          "type": "address"
        },
        {
          "indexed": false,
          "internalType": "uint256",
          "name": "value",
          "type": "uint256"
        }
      ],
      "name": "Approval",
      "type": "event"
    },
    {
      "anonymous": false,
      "inputs": [
        {
          "indexed": false,
          "internalType": "string",
          "name": "message",
          "type": "string"
        }
      ],
      "name": "ApprovedMsg",
      "type": "event"
    },
    {
      "anonymous": false,
      "inputs": [
        {
          "indexed": true,
          "internalType": "address",
          "name": "from",
          "type": "address"
        },
        {
          "indexed": true,
          "internalType": "address",
          "name": "to",
          "type": "address"
        },
        {
          "indexed": false,
          "internalType": "uint256",
          "name": "value",
          "type": "uint256"
        }
      ],
      "name": "Transfer",
      "type": "event"
    },
    {
      "inputs": [
        {
          "internalType": "address",
          "name": "owner",
          "type": "address"
        },
        {
          "internalType": "address",
          "name": "spender",
          "type": "address"
        }
      ],
      "name": "allowance",
      "outputs": [
        {
          "internalType": "uint256",
          "name": "",
          "type": "uint256"
        }
      ],
      "stateMutability": "view",
      "type": "function",
      "constant": true
    },
    {
      "inputs": [
        {
          "internalType": "address",
          "name": "spender",
          "type": "address"
        },
        {
          "internalType": "uint256",
          "name": "amount",
          "type": "uint256"
        }
      ],
      "name": "approve",
      "outputs": [
        {
          "internalType": "bool",
          "name": "",
          "type": "bool"
        }
      ],
      "stateMutability": "nonpayable",
      "type": "function"
    },
    {
      "inputs": [
        {
          "internalType": "address",
          "name": "account",
          "type": "address"
        }
      ],
      "name": "balanceOf",
      "outputs": [
        {
          "internalType": "uint256",
          "name": "",
          "type": "uint256"
        }
      ],
      "stateMutability": "view",
      "type": "function",
      "constant": true
    },
    {
      "inputs": [],
      "name": "decimals",
      "outputs": [
        {
          "internalType": "uint8",
          "name": "",
          "type": "uint8"
        }
      ],
      "stateMutability": "view",
      "type": "function",
      "constant": true
    },
    {
      "inputs": [
        {
          "internalType": "address",
          "name": "spender",
          "type": "address"
        },
        {
          "internalType": "uint256",
          "name": "subtractedValue",
          "type": "uint256"
        }
      ],
      "name": "decreaseAllowance",
      "outputs": [
        {
          "internalType": "bool",
          "name": "",
          "type": "bool"
        }
      ],
      "stateMutability": "nonpayable",
      "type": "function"
    },
    {
      "inputs": [
        {
          "internalType": "address",
          "name": "spender",
          "type": "address"
        },
        {
          "internalType": "uint256",
          "name": "addedValue",
          "type": "uint256"
        }
      ],
      "name": "increaseAllowance",
      "outputs": [
        {
          "internalType": "bool",
          "name": "",
          "type": "bool"
        }
      ],
      "stateMutability": "nonpayable",
      "type": "function"
    },
    {
      "inputs": [],
      "name": "name",
      "outputs": [
        {
          "internalType": "string",
          "name": "",
          "type": "string"
        }
      ],
      "stateMutability": "view",
      "type": "function",
      "constant": true
    },
    {
      "inputs": [],
      "name": "owner",
      "outputs": [
        {
          "internalType": "address",
          "name": "",
          "type": "address"
        }
      ],
      "stateMutability": "view",
      "type": "function",
      "constant": true
    },
    {
      "inputs": [],
      "name": "symbol",
      "outputs": [
        {
          "internalType": "string",
          "name": "",
          "type": "string"
        }
      ],
      "stateMutability": "view",
      "type": "function",
      "constant": true
    },
    {
      "inputs": [],
      "name": "totalSupply",
      "outputs": [
        {
          "internalType": "uint256",
          "name": "",
          "type": "uint256"
        }
      ],
      "stateMutability": "view",
      "type": "function",
      "constant": true
    },
    {
      "inputs": [
        {
          "internalType": "address",
          "name": "recipient",
          "type": "address"
        },
        {
          "internalType": "uint256",
          "name": "amount",
          "type": "uint256"
        }
      ],
      "name": "transfer",
      "outputs": [
        {
          "internalType": "bool",
          "name": "",
          "type": "bool"
        }
      ],
      "stateMutability": "nonpayable",
      "type": "function"
    },
    {
      "inputs": [
        {
          "internalType": "address",
          "name": "sender",
          "type": "address"
        },
        {
          "internalType": "address",
          "name": "recipient",
          "type": "address"
        },
        {
          "internalType": "uint256",
          "name": "amount",
          "type": "uint256"
        }
      ],
      "name": "transferFrom",
      "outputs": [
        {
          "internalType": "bool",
          "name": "",
          "type": "bool"
        }
      ],
      "stateMutability": "nonpayable",
      "type": "function"
    },
    {
      "inputs": [
        {
          "internalType": "address",
          "name": "account",
          "type": "address"
        }
      ],
      "name": "approveUser",
      "outputs": [
        {
          "internalType": "bool",
          "name": "",
          "type": "bool"
        }
      ],
      "stateMutability": "nonpayable",
      "type": "function"
    },
    {
      "inputs": [],
      "name": "buyToken",
      "outputs": [],
      "stateMutability": "payable",
      "type": "function",
      "payable": true
    }
  ],
  "bytecode": "0x60806040523480156200001157600080fd5b506040518060400160405280600781526020017f5354746f6b656e000000000000000000000000000000000000000000000000008152506040518060400160405280600381526020017f535459000000000000000000000000000000000000000000000000000000000081525081600390805190602001906200009692919062000290565b508060049080519060200190620000af92919062000290565b505050620000c6336103e86200010d60201b60201c565b33600560006101000a81548173ffffffffffffffffffffffffffffffffffffffff021916908373ffffffffffffffffffffffffffffffffffffffff160217905550620004ec565b600073ffffffffffffffffffffffffffffffffffffffff168273ffffffffffffffffffffffffffffffffffffffff16141562000180576040517f08c379a0000000000000000000000000000000000000000000000000000000008152600401620001779062000378565b60405180910390fd5b62000194600083836200028660201b60201c565b8060026000828254620001a89190620003c8565b92505081905550806000808473ffffffffffffffffffffffffffffffffffffffff1673ffffffffffffffffffffffffffffffffffffffff1681526020019081526020016000206000828254620001ff9190620003c8565b925050819055508173ffffffffffffffffffffffffffffffffffffffff16600073ffffffffffffffffffffffffffffffffffffffff167fddf252ad1be2c89b69c2b068fc378daa952ba7f163c4a11628f55a4df523b3ef836040516200026691906200039a565b60405180910390a362000282600083836200028b60201b60201c565b5050565b505050565b505050565b8280546200029e906200042f565b90600052602060002090601f016020900481019282620002c257600085556200030e565b82601f10620002dd57805160ff19168380011785556200030e565b828001600101855582156200030e579182015b828111156200030d578251825591602001919060010190620002f0565b5b5090506200031d919062000321565b5090565b5b808211156200033c57600081600090555060010162000322565b5090565b60006200034f601f83620003b7565b91506200035c82620004c3565b602082019050919050565b620003728162000425565b82525050565b60006020820190508181036000830152620003938162000340565b9050919050565b6000602082019050620003b1600083018462000367565b92915050565b600082825260208201905092915050565b6000620003d58262000425565b9150620003e28362000425565b9250827fffffffffffffffffffffffffffffffffffffffffffffffffffffffffffffffff038211156200041a576200041962000465565b5b828201905092915050565b6000819050919050565b600060028204905060018216806200044857607f821691505b602082108114156200045f576200045e62000494565b5b50919050565b7f4e487b7100000000000000000000000000000000000000000000000000000000600052601160045260246000fd5b7f4e487b7100000000000000000000000000000000000000000000000000000000600052602260045260246000fd5b7f45524332303a206d696e7420746f20746865207a65726f206164647265737300600082015250565b611aee80620004fc6000396000f3fe6080604052600436106100dd5760003560e01c80638da5cb5b1161007f578063a482171911610059578063a4821719146102ea578063a9059cbb146102f4578063d624fdb614610331578063dd62ed3e1461036e576100dd565b80638da5cb5b1461025757806395d89b4114610282578063a457c2d7146102ad576100dd565b806323b872dd116100bb57806323b872dd14610175578063313ce567146101b257806339509351146101dd57806370a082311461021a576100dd565b806306fdde03146100e2578063095ea7b31461010d57806318160ddd1461014a575b600080fd5b3480156100ee57600080fd5b506100f76103ab565b60405161010491906113d3565b60405180910390f35b34801561011957600080fd5b50610134600480360381019061012f9190611121565b61043d565b60405161014191906113b8565b60405180910390f35b34801561015657600080fd5b5061015f61045b565b60405161016c9190611595565b60405180910390f35b34801561018157600080fd5b5061019c600480360381019061019791906110ce565b610465565b6040516101a991906113b8565b60405180910390f35b3480156101be57600080fd5b506101c761055d565b6040516101d491906115b0565b60405180910390f35b3480156101e957600080fd5b5061020460048036038101906101ff9190611121565b610566565b60405161021191906113b8565b60405180910390f35b34801561022657600080fd5b50610241600480360381019061023c9190611061565b610612565b60405161024e9190611595565b60405180910390f35b34801561026357600080fd5b5061026c61065a565b604051610279919061139d565b60405180910390f35b34801561028e57600080fd5b50610297610680565b6040516102a491906113d3565b60405180910390f35b3480156102b957600080fd5b506102d460048036038101906102cf9190611121565b610712565b6040516102e191906113b8565b60405180910390f35b6102f26107fd565b005b34801561030057600080fd5b5061031b60048036038101906103169190611121565b610a0c565b60405161032891906113b8565b60405180910390f35b34801561033d57600080fd5b5061035860048036038101906103539190611061565b610a2a565b60405161036591906113b8565b60405180910390f35b34801561037a57600080fd5b506103956004803603810190610390919061108e565b610b52565b6040516103a29190611595565b60405180910390f35b6060600380546103ba906116c5565b80601f01602080910402602001604051908101604052809291908181526020018280546103e6906116c5565b80156104335780601f1061040857610100808354040283529160200191610433565b820191906000526020600020905b81548152906001019060200180831161041657829003601f168201915b5050505050905090565b600061045161044a610bd9565b8484610be1565b6001905092915050565b6000600254905090565b6000610472848484610dac565b6000600160008673ffffffffffffffffffffffffffffffffffffffff1673ffffffffffffffffffffffffffffffffffffffff16815260200190815260200160002060006104bd610bd9565b73ffffffffffffffffffffffffffffffffffffffff1673ffffffffffffffffffffffffffffffffffffffff1681526020019081526020016000205490508281101561053d576040517f08c379a0000000000000000000000000000000000000000000000000000000008152600401610534906114d5565b60405180910390fd5b61055185610549610bd9565b858403610be1565b60019150509392505050565b60006012905090565b6000610608610573610bd9565b848460016000610581610bd9565b73ffffffffffffffffffffffffffffffffffffffff1673ffffffffffffffffffffffffffffffffffffffff16815260200190815260200160002060008873ffffffffffffffffffffffffffffffffffffffff1673ffffffffffffffffffffffffffffffffffffffff1681526020019081526020016000205461060391906115e7565b610be1565b6001905092915050565b60008060008373ffffffffffffffffffffffffffffffffffffffff1673ffffffffffffffffffffffffffffffffffffffff168152602001908152602001600020549050919050565b600560009054906101000a900473ffffffffffffffffffffffffffffffffffffffff1681565b60606004805461068f906116c5565b80601f01602080910402602001604051908101604052809291908181526020018280546106bb906116c5565b80156107085780601f106106dd57610100808354040283529160200191610708565b820191906000526020600020905b8154815290600101906020018083116106eb57829003601f168201915b5050505050905090565b60008060016000610721610bd9565b73ffffffffffffffffffffffffffffffffffffffff1673ffffffffffffffffffffffffffffffffffffffff16815260200190815260200160002060008573ffffffffffffffffffffffffffffffffffffffff1673ffffffffffffffffffffffffffffffffffffffff168152602001908152602001600020549050828110156107de576040517f08c379a00000000000000000000000000000000000000000000000000000000081526004016107d590611575565b60405180910390fd5b6107f26107e9610bd9565b85858403610be1565b600191505092915050565b600560009054906101000a900473ffffffffffffffffffffffffffffffffffffffff1673ffffffffffffffffffffffffffffffffffffffff163373ffffffffffffffffffffffffffffffffffffffff16141561088e576040517f08c379a0000000000000000000000000000000000000000000000000000000008152600401610885906114b5565b60405180910390fd5b60011515600660003373ffffffffffffffffffffffffffffffffffffffff1673ffffffffffffffffffffffffffffffffffffffff16815260200190815260200160002060009054906101000a900460ff16151514610921576040517f08c379a000000000000000000000000000000000000000000000000000000000815260040161091890611415565b60405180910390fd5b60003490506000610953600560009054906101000a900473ffffffffffffffffffffffffffffffffffffffff16610612565b905060008211610998576040517f08c379a000000000000000000000000000000000000000000000000000000000815260040161098f90611515565b60405180910390fd5b808211156109db576040517f08c379a00000000000000000000000000000000000000000000000000000000081526004016109d290611475565b60405180910390fd5b610a08600560009054906101000a900473ffffffffffffffffffffffffffffffffffffffff163334610dac565b5050565b6000610a20610a19610bd9565b8484610dac565b6001905092915050565b6000600560009054906101000a900473ffffffffffffffffffffffffffffffffffffffff1673ffffffffffffffffffffffffffffffffffffffff163373ffffffffffffffffffffffffffffffffffffffff1614610abc576040517f08c379a0000000000000000000000000000000000000000000000000000000008152600401610ab3906114f5565b60405180910390fd5b6001600660008473ffffffffffffffffffffffffffffffffffffffff1673ffffffffffffffffffffffffffffffffffffffff16815260200190815260200160002060006101000a81548160ff0219169083151502179055507fe10d37bea72d2707138a4c2276bf728bfd034c6835ab12c72a89fd2f094cafb4604051610b4190611495565b60405180910390a160019050919050565b6000600160008473ffffffffffffffffffffffffffffffffffffffff1673ffffffffffffffffffffffffffffffffffffffff16815260200190815260200160002060008373ffffffffffffffffffffffffffffffffffffffff1673ffffffffffffffffffffffffffffffffffffffff16815260200190815260200160002054905092915050565b600033905090565b600073ffffffffffffffffffffffffffffffffffffffff168373ffffffffffffffffffffffffffffffffffffffff161415610c51576040517f08c379a0000000000000000000000000000000000000000000000000000000008152600401610c4890611555565b60405180910390fd5b600073ffffffffffffffffffffffffffffffffffffffff168273ffffffffffffffffffffffffffffffffffffffff161415610cc1576040517f08c379a0000000000000000000000000000000000000000000000000000000008152600401610cb890611435565b60405180910390fd5b80600160008573ffffffffffffffffffffffffffffffffffffffff1673ffffffffffffffffffffffffffffffffffffffff16815260200190815260200160002060008473ffffffffffffffffffffffffffffffffffffffff1673ffffffffffffffffffffffffffffffffffffffff168152602001908152602001600020819055508173ffffffffffffffffffffffffffffffffffffffff168373ffffffffffffffffffffffffffffffffffffffff167f8c5be1e5ebec7d5bd14f71427d1e84f3dd0314c0f7b2291e5b200ac8c7c3b92583604051610d9f9190611595565b60405180910390a3505050565b600073ffffffffffffffffffffffffffffffffffffffff168373ffffffffffffffffffffffffffffffffffffffff161415610e1c576040517f08c379a0000000000000000000000000000000000000000000000000000000008152600401610e1390611535565b60405180910390fd5b600073ffffffffffffffffffffffffffffffffffffffff168273ffffffffffffffffffffffffffffffffffffffff161415610e8c576040517f08c379a0000000000000000000000000000000000000000000000000000000008152600401610e83906113f5565b60405180910390fd5b610e9783838361102d565b60008060008573ffffffffffffffffffffffffffffffffffffffff1673ffffffffffffffffffffffffffffffffffffffff16815260200190815260200160002054905081811015610f1d576040517f08c379a0000000000000000000000000000000000000000000000000000000008152600401610f1490611455565b60405180910390fd5b8181036000808673ffffffffffffffffffffffffffffffffffffffff1673ffffffffffffffffffffffffffffffffffffffff16815260200190815260200160002081905550816000808573ffffffffffffffffffffffffffffffffffffffff1673ffffffffffffffffffffffffffffffffffffffff1681526020019081526020016000206000828254610fb091906115e7565b925050819055508273ffffffffffffffffffffffffffffffffffffffff168473ffffffffffffffffffffffffffffffffffffffff167fddf252ad1be2c89b69c2b068fc378daa952ba7f163c4a11628f55a4df523b3ef846040516110149190611595565b60405180910390a3611027848484611032565b50505050565b505050565b505050565b60008135905061104681611a8a565b92915050565b60008135905061105b81611aa1565b92915050565b60006020828403121561107757611076611755565b5b600061108584828501611037565b91505092915050565b600080604083850312156110a5576110a4611755565b5b60006110b385828601611037565b92505060206110c485828601611037565b9150509250929050565b6000806000606084860312156110e7576110e6611755565b5b60006110f586828701611037565b935050602061110686828701611037565b92505060406111178682870161104c565b9150509250925092565b6000806040838503121561113857611137611755565b5b600061114685828601611037565b92505060206111578582860161104c565b9150509250929050565b61116a8161163d565b82525050565b6111798161164f565b82525050565b600061118a826115cb565b61119481856115d6565b93506111a4818560208601611692565b6111ad8161175a565b840191505092915050565b60006111c56023836115d6565b91506111d08261176b565b604082019050919050565b60006111e86013836115d6565b91506111f3826117ba565b602082019050919050565b600061120b6022836115d6565b9150611216826117e3565b604082019050919050565b600061122e6026836115d6565b915061123982611832565b604082019050919050565b6000611251601a836115d6565b915061125c82611881565b602082019050919050565b60006112746013836115d6565b915061127f826118aa565b602082019050919050565b60006112976017836115d6565b91506112a2826118d3565b602082019050919050565b60006112ba6028836115d6565b91506112c5826118fc565b604082019050919050565b60006112dd6017836115d6565b91506112e88261194b565b602082019050919050565b6000611300601d836115d6565b915061130b82611974565b602082019050919050565b60006113236025836115d6565b915061132e8261199d565b604082019050919050565b60006113466024836115d6565b9150611351826119ec565b604082019050919050565b60006113696025836115d6565b915061137482611a3b565b604082019050919050565b6113888161167b565b82525050565b61139781611685565b82525050565b60006020820190506113b26000830184611161565b92915050565b60006020820190506113cd6000830184611170565b92915050565b600060208201905081810360008301526113ed818461117f565b905092915050565b6000602082019050818103600083015261140e816111b8565b9050919050565b6000602082019050818103600083015261142e816111db565b9050919050565b6000602082019050818103600083015261144e816111fe565b9050919050565b6000602082019050818103600083015261146e81611221565b9050919050565b6000602082019050818103600083015261148e81611244565b9050919050565b600060208201905081810360008301526114ae81611267565b9050919050565b600060208201905081810360008301526114ce8161128a565b9050919050565b600060208201905081810360008301526114ee816112ad565b9050919050565b6000602082019050818103600083015261150e816112d0565b9050919050565b6000602082019050818103600083015261152e816112f3565b9050919050565b6000602082019050818103600083015261154e81611316565b9050919050565b6000602082019050818103600083015261156e81611339565b9050919050565b6000602082019050818103600083015261158e8161135c565b9050919050565b60006020820190506115aa600083018461137f565b92915050565b60006020820190506115c5600083018461138e565b92915050565b600081519050919050565b600082825260208201905092915050565b60006115f28261167b565b91506115fd8361167b565b9250827fffffffffffffffffffffffffffffffffffffffffffffffffffffffffffffffff03821115611632576116316116f7565b5b828201905092915050565b60006116488261165b565b9050919050565b60008115159050919050565b600073ffffffffffffffffffffffffffffffffffffffff82169050919050565b6000819050919050565b600060ff82169050919050565b60005b838110156116b0578082015181840152602081019050611695565b838111156116bf576000848401525b50505050565b600060028204905060018216806116dd57607f821691505b602082108114156116f1576116f0611726565b5b50919050565b7f4e487b7100000000000000000000000000000000000000000000000000000000600052601160045260246000fd5b7f4e487b7100000000000000000000000000000000000000000000000000000000600052602260045260246000fd5b600080fd5b6000601f19601f8301169050919050565b7f45524332303a207472616e7366657220746f20746865207a65726f206164647260008201527f6573730000000000000000000000000000000000000000000000000000000000602082015250565b7f55736572206e6f74207665726966696564212100000000000000000000000000600082015250565b7f45524332303a20617070726f766520746f20746865207a65726f20616464726560008201527f7373000000000000000000000000000000000000000000000000000000000000602082015250565b7f45524332303a207472616e7366657220616d6f756e742065786365656473206260008201527f616c616e63650000000000000000000000000000000000000000000000000000602082015250565b7f4e6f7420656e6f75676820746f6b656e2070726573656e742121000000000000600082015250565b7f5573657220697320617070726f76656420212100000000000000000000000000600082015250565b7f42757965722063616e6e6f74206265206f776e65722121000000000000000000600082015250565b7f45524332303a207472616e7366657220616d6f756e742065786365656473206160008201527f6c6c6f77616e6365000000000000000000000000000000000000000000000000602082015250565b7f4f6e6c79206f776e65722063616e207665726966792121000000000000000000600082015250565b7f596f75206e65656420746f2073656e6420736f6d652065746865722121000000600082015250565b7f45524332303a207472616e736665722066726f6d20746865207a65726f20616460008201527f6472657373000000000000000000000000000000000000000000000000000000602082015250565b7f45524332303a20617070726f76652066726f6d20746865207a65726f2061646460008201527f7265737300000000000000000000000000000000000000000000000000000000602082015250565b7f45524332303a2064656372656173656420616c6c6f77616e63652062656c6f7760008201527f207a65726f000000000000000000000000000000000000000000000000000000602082015250565b611a938161163d565b8114611a9e57600080fd5b50565b611aaa8161167b565b8114611ab557600080fd5b5056fea2646970667358221220871f1374854c9ab3591ad5e5e3aba6347dfdd1b29af5f28b00b384021c7837b264736f6c63430008060033",
  "immutableReferences": {},
  "source": "// SPDX-License-Identifier: MIT\npragma solidity ^0.8.0;\nimport \"@openzeppelin/contracts/token/ERC20/ERC20.sol\";\n\ncontract ERC20Token is ERC20{\n    \n    address public owner;\n    mapping(address => bool) verifiedUsers;\n    \n    event ApprovedMsg(string message);\n    \n    constructor() ERC20(\"STtoken\", 'STY') {\n        _mint(msg.sender, 1000);\n        owner = msg.sender;\n    }\n    \n    modifier ownerOnly(){\n        require(msg.sender == owner, \"Only owner can verify!!\");\n        _;\n    }\n    \n    modifier verifiedOnly(){\n        require(msg.sender != owner, \"Buyer cannot be owner!!\");\n        require(verifiedUsers[msg.sender] == true, \"User not verified!!\");\n        _;\n    }\n    \n    \n    function approveUser(address account) public ownerOnly returns (bool) {\n        verifiedUsers[account] = true;\n        emit ApprovedMsg(\"User is approved !!\");\n        return true;\n    }\n    \n    function buyToken() payable public verifiedOnly () {\n        uint256 amountToBuy = msg.value;\n        uint256 ownerBalance = balanceOf(owner); \n        require(amountToBuy > 0, \"You need to send some ether!!\");\n        require(amountToBuy <= ownerBalance, \"Not enough token present!!\");\n        _transfer(owner, msg.sender, msg.value);\n    }\n}",
  "sourcePath": "/home/shubham/Documents/ERC20Example/contracts/ERC20Token.sol",
  "compiler": {
    "name": "solc",
    "version": "0.8.6+commit.11564f7e.Emscripten.clang"
  },
  "schemaVersion": "3.4.1",
  "updatedAt": "2021-07-22T06:27:58.345Z",
  "networkType": "ethereum",
  "devdoc": {
    "kind": "dev",
    "methods": {
      "allowance(address,address)": {
        "details": "See {IERC20-allowance}."
      },
      "approve(address,uint256)": {
        "details": "See {IERC20-approve}. Requirements: - `spender` cannot be the zero address."
      },
      "balanceOf(address)": {
        "details": "See {IERC20-balanceOf}."
      },
      "decimals()": {
        "details": "Returns the number of decimals used to get its user representation. For example, if `decimals` equals `2`, a balance of `505` tokens should be displayed to a user as `5,05` (`505 / 10 ** 2`). Tokens usually opt for a value of 18, imitating the relationship between Ether and Wei. This is the value {ERC20} uses, unless this function is overridden; NOTE: This information is only used for _display_ purposes: it in no way affects any of the arithmetic of the contract, including {IERC20-balanceOf} and {IERC20-transfer}."
      },
      "decreaseAllowance(address,uint256)": {
        "details": "Atomically decreases the allowance granted to `spender` by the caller. This is an alternative to {approve} that can be used as a mitigation for problems described in {IERC20-approve}. Emits an {Approval} event indicating the updated allowance. Requirements: - `spender` cannot be the zero address. - `spender` must have allowance for the caller of at least `subtractedValue`."
      },
      "increaseAllowance(address,uint256)": {
        "details": "Atomically increases the allowance granted to `spender` by the caller. This is an alternative to {approve} that can be used as a mitigation for problems described in {IERC20-approve}. Emits an {Approval} event indicating the updated allowance. Requirements: - `spender` cannot be the zero address."
      },
      "name()": {
        "details": "Returns the name of the token."
      },
      "symbol()": {
        "details": "Returns the symbol of the token, usually a shorter version of the name."
      },
      "totalSupply()": {
        "details": "See {IERC20-totalSupply}."
      },
      "transfer(address,uint256)": {
        "details": "See {IERC20-transfer}. Requirements: - `recipient` cannot be the zero address. - the caller must have a balance of at least `amount`."
      },
      "transferFrom(address,address,uint256)": {
        "details": "See {IERC20-transferFrom}. Emits an {Approval} event indicating the updated allowance. This is not required by the EIP. See the note at the beginning of {ERC20}. Requirements: - `sender` and `recipient` cannot be the zero address. - `sender` must have a balance of at least `amount`. - the caller must have allowance for ``sender``'s tokens of at least `amount`."
      }
    },
    "version": 1
  },
  "userdoc": {
    "kind": "user",
    "methods": {},
    "version": 1
  }
}